:1000000000800020A10000009D0000009901000078
:100010009D0000009D0000009D0000009D0000006C
:100020009D0000009D000000382800009D00000099
:100030009D0000006C2800009D0000009D00000055
:1000400010B5054C237833B9044B13B1044800E0D4
:1000500000BF0123237010BD4801002000000000F4
:10006000C829000008B5034B1BB10349034800E051
:1000700000BF08BD000000004C010020C82900009E
:10008000044B054A9A60D3F8882042F47002C3F802
:100090008820704700ED00E000000000FEE700004F
:1000A00008B5FFF7EDFF00F0E7F80A4A0A4B0B49E5
:1000B0008B4206D300210A4B0A4A934206D300F032
:1000C0006FF852F8040F43F8040BF1E743F8041BF0
:1000D000F3E700BFC829000000010020480100200C
:1000E00048010020F40400200020704700207047E1
:1000F00030B51C4B87B001AA03F1100514461868EF
:100100005968083303C4AB422246F7D11B782370E9
:10011000154B1B6F03F00703032B1ED0134A936884
:10012000C3F30443102B1AD806A90B4413F8140C7C
:100130000F4B104943438B4206D191680122C1F312
:1001400001618A40B3FBF2F3074A106FC0F301303C
:100150000130B3FBF0F007B030BD074BF4E7074BBD
:10016000F2E700BF242800000080004000000140AA
:1001700040420F0000093D0000F04902C0EA2101A1
:1001800040F60A4343610023490101F1804101F532
:100190007031C1F8AC3570474FF4017002F0BEBA4F
:1001A00013B501A800F038FB2C4B9B6DDB0318D472
:1001B0002B4A136823F4FF0323F4FE4343F4BC13D8
:1001C00043F4A063136052F8043C23F4704343F4F7
:1001D000404342F8043C52F8043C43F4E06342F8E4
:1001E000043C9DF80530012B0FD19DF8043063B914
:1001F0004FF000531B681B4B1B681B4B1B681B4BB2
:100200001B681B4B1B681B4B1B68FFF76DFF02F045
:100210007EFA00F0A1FB00F0B1FB18B14FF40170C1
:1002200002F07CFA00F0CEFB044600F00BFE1CB19D
:1002300040F203739C4203D140F2012002F06EFAB7
:10024000A4F20574012C94BF40F203204FF4017016
:1002500002F064FA002002B010BD00BF00C00040F0
:1002600034C00040004000200080002000C000207A
:10027000000001200040012008B54FF04023D3F8D2
:1002800094305B060FD400F0EFFD80F00100C0B2A7
:1002900044F204031B68013314D1BDE808404FF455
:1002A000027002F02DBA02F051FAA0F2022080B2E0
:1002B0000728E8D8012303FA00F010F0C90FE2D0B4
:1002C0000020E5E790B14FF4804002F0F9F80028F3
:1002D000E3D04FF48043064A93601846016881F3E7
:1002E000088881F3098840688746FEE708BD00BF9B
:1002F00000ED00E00020704749BA89B24840C0F3E1
:100300000311414008B280EA013000B2C3B280EA72
:10031000431080B2704738B5044645181046AC42C9
:1003200000D138BD014614F8010BFFF7E5FFF6E7F1
:1003300030B501240025074B01445C609D601A61C3
:100340001A46DC60884201D1586A30BD10F8014B72
:100350001462F7E700800840F8B504461D461646CB
:100360000F4600F0B8FDDDE90612204600F0B9FDA9
:10037000002384F83870636232682B0CC4F839208B
:100380007268C4F83D20B26884F845302B0AC4F87E
:10039000412084F8463084F84750F8BD30B51D46FA
:1003A00085B000F12803CDE90112009300F1240289
:1003B00000F13803294600F019FE05B030BD0000F9
:1003C0002DE9F04798B0884617461D46DDF880A015
:1003D000814620B940F2016018B0BDE8F0870029DD
:1003E000F8D0002AF6D01C22002111A802F006FA4B
:1003F000244B18AC44F8203D2349204600F0E4F992
:100400002021204600F0E0F9002DE3D0BAF1000FE2
:10041000E0D0012601951D4D01A9204602960395C5
:10042000CDF810A00596069500F0BAF904A920466B
:1004300000F0B6F907A92046CDF81C90089609955A
:1004400000F0AEF90AA92046CDF828800B960C954D
:100450000D970E960F9500F0A3F90DA9204600F018
:100460009FF9204600F0B9F94FF098435A6CD20238
:10047000FCD55B6D40F2046013F4702F08BF0020C0
:10048000AAE700BF000001061F2400802000002012
:1004900010B5044600F0BAFF2046BDE81040002128
:1004A00000F0DEBF00F0E6BF014600F0E5BF00004F
:1004B00013B50446FFF71CFE074BB0FBF3F04443B3
:1004C0000720B4FBF0F401340194019B5A1E019201
:1004D000002BFAD102B010BD40420F001FB5FFF74C
:1004E00007FE4FF47A23B0FBF3F00A4B0E2218609C
:1004F0000021684602F082F901238DF8003040F2B5
:10050000FF3369460448ADF8023000F09AF905B0AF
:100510005DF804FB68010020008004400D4A0E4B8A
:1005200010B5546A1B68A4B213FB004080B2A0420D
:100530002CBF00240124094B1880094B1C70134662
:1005400011B15A6A8242FCD1012242F214015A507E
:100550009A6110BD00800440680100206401002001
:10056000660100200A4B1A780A4B22B1586910F034
:10057000010003D170475A69D20707D4586A064B65
:100580001B88984234BF002001207047012070472B
:10059000660100200080044064010020F0B54AB1EB
:1005A000012530241D4E8D4004FB00640BB341F245
:1005B0001006A55130244443072904F1804404F572
:1005C000703419D80F2765688E00B74025EA0705F3
:1005D00002FA06F63543656052B9012202FA01F1CA
:1005E00030220E4C02FB0040A3B141F21003C15077
:1005F000F0BD42F21006DCE70F2701F18045083D0F
:10060000E668AD00AF4026EA070602FA05F5354375
:10061000E560E1E742F21003E9E700BF00C00340F4
:1006200070B50D4C0D4E0E4DF36913EA050208D05E
:100630000C4A1A40002A14BF6FF001004FF0FF303F
:1006400070BD03408B4204D0013CEDD16FF002003D
:10065000F6E71046F4E700BF8096980000000340DC
:10066000060001000200010070B5134C6061E069F2
:1006700043071DD40E1D0968151FA1615DB9042330
:10068000294623612120FFF7CBFF58B9BDE8704010
:100690002120FFF7C5BF08210846FFF7C1FF10B1B1
:1006A0000423236170BD56F8043B043DA361E5E7D4
:1006B0004FF0FF30F6E700BF0000034041F6713213
:1006C000034B0121DA6342F20C029950704700BFDC
:1006D0000000034041F67132044B0121DA6342F21B
:1006E0000C0299500022DA63704700BF00000340FB
:1006F00038B541F671330E4C0122E569E36341F2EE
:100700000C03E2500223606100212361212005F4E3
:100710008035FFF785FF18B901462120FFF780FFDC
:1007200042F20C030122E2500DB10023E36338BD15
:10073000000003402DE9F843154641F67132164B8F
:100740008846DF690121DA6341F20C020646DFF8D0
:100750004C9007F48037995055B9284642F20C0264
:1007600001210D4B99500FB10022DA63BDE8F883E7
:1007700006F5005404EA0904A41BAC4228BF2C4629
:10078000414622463046FFF76FFF0028E6D1264457
:10079000A0442D1BE0E700BF0000034000E0FFFF86
:1007A000436813B9416070475B685A68012AFBD1FE
:1007B00059607047836813B9816070475B685A68F5
:1007C000012AFBD159607047C369032B9FBF00EB1F
:1007D00083020133D160C3617047C369042B15D80C
:1007E0004FF09842116CC902FCD504339B0013658D
:1007F0000168103B116041680C30116050F8041C16
:10080000034411604FF09842984200D1704750F86D
:10081000041B1160F8E70000054B5B69C3F3851208
:10082000827003F03F021B0B42700370704700BFE1
:1008300000C00740036BDA0702D503695B06F9D4F1
:10084000704710B50446FFF7F5FF012242F230036E
:10085000C2500B7948881B0243EA8043487A03431D
:100860004878002814BF402000200343887A0028DD
:1008700014BF802000200343C87A002814BF202022
:1008800000200343087B002814BF102000200343EE
:10089000487B002814BF08200020034388790028E3
:1008A00014BF4FF4803000200343636041F23003F3
:1008B000E2500A780AB90223E3600023C879636230
:1008C0000B7A497943EA8003002914BF10210021E3
:1008D0000B43A3600AB10123E36010BD09490A7804
:1008E0007AB9094B1870A720987003205A7083F8C2
:1008F000200083F8212083F8222083F8232001237D
:100900000B707047000100209401002008B50E4BC9
:100910001B68580716D50D4B1A68110712D442F2FE
:10092000A00204200A4988501A681207FCD5142036
:10093000FFF7BEFD0422074B32201A60BDE80840D5
:10094000FFF7B6BD08BD00BFA0C00340A4C0034070
:1009500000C00340A0D0034008B5042201230221B7
:100960000320FFF71BFE0321012302220846FFF7A5
:1009700015FEBDE8084000F093BD000010B5FFF77C
:10098000C5FF042342F2A0020B4900248B500B4AFE
:10099000137009220A4B5A70A7229A7003221C7006
:1009A00083F8202083F8214083F8224083F82340F5
:1009B00000F002FF204610BD00C0034043020020AB
:1009C000940100202DE9F04F202387B0B14AB249AD
:1009D000B24801F08DF8B24FDFF80C93B14E337886
:1009E000042BFDD8DFE813F08D01050029018201F9
:1009F0008201002000F016FE0121002000F094FE8C
:100A0000A94B1D7835B14FF4FA70FFF751FD022361
:100A10003370E3E7A54AD3780B2B4CD005D80A2BCB
:100A200058D00420FFF75AFFF1E7FD3B012BF8D81F
:100A3000FD2301219E4C2370A72384F820101179F7
:100A4000E370012984F8215084F8225084F823505F
:100A5000A0465ED1507951285BD1DFF86CA2039398
:100A60009AF800209349C2B3D1F820B0A01C5A468E
:100A700001F0B9FE039B04EB0B029370A378C4F85A
:100A800020B08AF80050A370D8F82020182B62708C
:100A900002F103022262BAD1864A012113700023B7
:100AA00082F8213082F8223082F82330824B82F89B
:100AB00020101970ABE7C1227D4B1A70A7225A7023
:100AC000022283F8215083F8202083F8225083F8F3
:100AD00023509CE7764B8222EFE70A46774B03F1DF
:100AE000180053F8045B834242F8045BF9D11B8879
:100AF000138000221A2381F8212081F8222081F816
:100B00002320012281F820306D498AF800200A70E4
:100B1000B9E76B4B1B78002B00F089805379012BD0
:100B200002D1852940F085800DF11301654800F060
:100B30004DFE9DF813305F4D062B82462B704FF013
:100B4000000B1FD100F0A8FE0323687085F802B0E7
:100B500085F8203001235C4A85F821B0137040F6F7
:100B60000412924585F822B085F823B040D015DCF8
:100B700040F60112924520D006DCBAF1000F1ED0DB
:100B8000182380E70123E3E740F602139A4552D089
:100B900040F603139A45F3D1212374E740F6061378
:100BA0009A4527D028DB40F607139A4526D040F611
:100BB00008139A45E4D1192365E7242363E7434AE0
:100BC000434D1370434B444AC3F800A0434B29469E
:100BD00000933248802300F0C5FF10B1AB78002BA2
:100BE000CED0AB78002BE6D0EB78002BE3D1C7E773
:100BF000222348E7272346E7252344E7344B9A7806
:100C0000002ABDD0DA78002ABAD01A78520708D460
:100C10000122334B1A7000F03FFE01306870172339
:100C200031E7986A01F0D8FC0028F1D1A8E74D23FC
:100C300029E7262327E7232325E71D4C216A2046A1
:100C400000F0BCFC68B90423C9F8003000F098FC3F
:100C5000236A9842FAD20422224B1A600022124BD5
:100C60001A703B681C07FCD5002000F089FD164B6C
:100C70001A780AB10323CBE6194B327019780E4B60
:100C80001B78002940F0A580002B3FF4A7AE40F26E
:100C90000570C1E040040020AC040020B003002037
:100CA00074C003404302002000010020B80100206E
:100CB000940100206E0100206D010020BC2800007E
:100CC00093010020BD010020920100204402002079
:100CD0000401002048020020C0010020AC280000D0
:100CE0006C010020A0D00340A0E003403B6818073F
:100CF000FCD51420FFF7DCFB0423C9F800300023E7
:100D000086E63B681907FCD5464C012000F08AFCBA
:100D1000217889B1002141F28830FFF7FFFBDFF82D
:100D20002081414D3B681A0709D4FF233F4CE370F3
:100D3000254604F1030821E04FF47A70EDE7FFF750
:100D4000E5FDFFF70FFC0028ECD098F80010002913
:100D5000E8D12B68227801332B6032B10C2B5ED89E
:100D600041F28830FFF7DAFBDCE73C2B57D811461D
:100D70004FF47A70F6E7404600F0CCFCEB78FF2B9E
:100D8000F9D004222A4B2B481A6000F0C3FCE37808
:100D90000333DBB2012B237917D8852B02D901202D
:100DA000FFF79CFD4FF4FA7321790093012305AA04
:100DB0001944214800F062FC20B10220FFF78EFDAB
:100DC000012325E6059B1D442B79A72BF8D0032092
:100DD000F4E7002B7FF45BAF184C23785B0707D553
:100DE00000F058FB01F022FC40F2022001F096FCDA
:100DF000207810F002000FD028231B6862689B68DF
:100E00009A4204D900F046FB616A01F09FFB40F270
:100E1000022001F083FC002007B0BDE8F08F40F213
:100E20000470F9E74402002048020020B8010020C5
:100E3000A0D00340BC010020BD010020040100201F
:100E40009201002010B500F093FB002302211A4606
:100E50000320FFF7A3FBBDE81040002303211A463F
:100E60000846FFF79BBB000013B5012304220221B3
:100E70000320FFF793FB00230093009B632B19DDF6
:100E80000222012311460320FFF788FB0023019370
:100E9000019BB3F5FA7F10DB094B00221C6802218D
:100EA00001230320FFF77AFB6FEA940000F00100B2
:100EB00002B010BD009B0133DEE7019B0133E6E782
:100EC000A4C003404FF098435A6CD202FCD5586D31
:100ED00000F47020704718B12422002101F08EBC6C
:100EE000704770B50E4615460446A0B199B124224C
:100EF000002101F083FC25F04003802B02D0B5F5E2
:100F0000807F0BD12046EA0840F8045B314601F0AF
:100F10006AFC002070BD6FF02100FBE76FF01F003E
:100F2000F8E700002DE9F041884692B016461F46CA
:100F3000054600284ED0002A4CD0002B4AD0046829
:100F400024F04003802B02D0B4F5807F45D11C22D1
:100F500000210BA801F052FC214B22490122B8F1DB
:100F6000010F18BF19462B1D0193E4081E4B0A916F
:100F700044F0005401A90AA8029203940496059231
:100F80000693079708920993FFF70AFC04A90AA899
:100F9000FFF706FC07A90AA8FFF70CFC29680AA8B6
:100FA000C908FFF711FC10210AA8FFF70DFC00F09B
:100FB000EBF8044650B90AA8FFF70FFCFFF782FFD1
:100FC000054600F0EDF8002D18BF2C46204612B063
:100FD000BDE8F0816FF02104F8E76FF01F04F5E73A
:100FE0000001010400010004100000202DE9F04F71
:100FF0009BB007468A469846DDF8949016460AB399
:101000001568002F00F0B480B9F1000F00F0B08037
:10101000269B002B00F0AC80B8F1000F00F0A880F8
:10102000249B002B00F0A4803B6823F04002802A20
:1010300003D0B3F5807F40F09E8009EB0A030024C3
:1010400000930DE01546DCE795B1249A19F80430B9
:10105000525D01355340269A05F00F0513550134B2
:101060005445F1D3002E00F089803560002060E007
:10107000AAEB040BBBF10F0F51D91C22294613A870
:1010800001F0BCFB3E4B3A6812933B1D03930123D6
:10109000D20842F00052049305923A4A2699CDF8BC
:1010A00018802BF00F0B07930892CDF824800A9339
:1010B0000B9209EB04020C9221444BF000520D9369
:1010C00012A80E920F9103A910931192FFF768FBDB
:1010D00006A912A8FFF764FB0CA912A8FFF760FB92
:1010E0000FA912A8FFF766FB09A912A8FFF762FB78
:1010F000396812A8C908FFF767FB594612A8FFF71D
:1011000063FB00F041F8A0B912A8FFF766FBFFF7F8
:10111000D9FE019000F044F8019B5C4443B9269B42
:1011200009EB040B1C44009B5B4505D1544697E733
:1011300018461BB0BDE8F08F7DB94246249B0121C3
:101140003846FFF7EFFE08F1100212F8013D0133B7
:10115000DBB213700BB99045F7D1249A1BF8013B11
:10116000525D0135534004F8013B05F00F05DAE705
:101170006FF02100DDE76FF01F00DAE73046D8E7B7
:101180000303000410000020044B5B68C3F3080352
:10119000002B14BF6FF01D000020704700ED00E031
:1011A000002070472DE9F04192B005460F46904669
:1011B00000211C220BA81E46189C01F01FFB0121D8
:1011C0004FF000528D42CDF80480029103920497B3
:1011D000059106920796089109923BD003D3022D00
:1011E0004BD0274C32E0274B12A8A40140F8203DF9
:1011F0002146FFF7E9FA039B1C430394069B43F047
:1012000014030693099B43F0140304A90AA8099345
:10121000FFF7C6FA01A90AA8FFF7C2FA07A90AA8A8
:10122000FFF7C8FAFFF7B0FF044678B90AA8FFF73E
:10123000D4FA4FF098435A6CD202FCD55D6DFFF79B
:10124000AFFF114B15F4702F18BF1C46204612B08B
:10125000BDE8F0810D4B12A8A40140F8203D2146C5
:10126000FFF7B2FA039B1C430394069B43F0200351
:101270000693099B43F02003C7E712A8044BEBE752
:1012800080AFFFFF0002010380ADFFFF00030103F9
:10129000000401032DE9F34702281446DDE90A9210
:1012A00080460E461F464ED81CB9002002B0BDE84D
:1012B000F08713683F2B42D8516809B1002F3ED107
:1012C000B8F1010F3DD0224D2249B8F1020F18BFED
:1012D0000D4603F03F00E318136022BF536801334B
:1012E000536090B3C0F1400A544522D33146524670
:1012F000484401F078FA01234A46009329463B46C8
:101300004046A4EB0A04FFF74DFF3F2C56440DD98D
:101310003D46A309009332463B4629464046FFF727
:1013200041FF24F03F031E4404F03F04002CBCD0D6
:10133000002022463146484401F055FAB5E73D46C3
:10134000C7E7054DC5E70548B0E73F2CF1D9E0E711
:1013500016290000D6280000F628000080AFFFFF05
:101360002DE9F041012886B004460E4690461D4600
:1013700004D045D3022841D022483CE01C272A68EB
:10138000CDE90085D3008DF80F3053098DF80E306C
:10139000530B8DF80D30530D8DF80C306B682046D3
:1013A000D90001EB52718DF80B1002F03F02590980
:1013B000372A8DF80A104FEA53314FEA535394BF3E
:1013C000C2F13802C2F178028DF809108DF80830A8
:1013D0000D493346FFF75EFF082233460DEB02014D
:1013E000CDE900852046FFF755FF3A4631460C9877
:1013F00001F0F9F9002006B0BDE8F0812027BEE732
:101400001427BCE780AFFFFF3629000018B16C221B
:10141000002101F0F3B9704707B590F868300190EA
:10142000002B00F12803009300F1080314BF0120F2
:101430000220FFF72FFF03B05DF804FB07B590F81B
:1014400068200346002A009100F1280200F10801FB
:1014500014BF01200220FFF783FF03B05DF804FBF7
:1014600000239942D4BF00210121C0E9003380F854
:1014700068107047FFF7D0BFFFF7E0BF002070474C
:1014800000207047002070470020704728231B6809
:10149000186970474FF40040704701207047000002
:1014A00038B50123042219460220FFF777F80123FB
:1014B00000211A460220FFF771F8012302211A4683
:1014C0000846FFF76BF8012303211A460220FFF7B5
:1014D00065F841F2040401210220204B204A214DED
:1014E0001951C2F80406C2F8FC554FF00215C2F8B3
:1014F000005605F58035C2F8F0551925C2F8EC55AF
:101500009A684FF4C02542F480620A439A6005222B
:10151000DA6045225A614FF0F052A3F500331951B9
:101520009A600022104C5A629A631A645A652560C8
:1015300005441A66DA656560C3F89020C3F88C200C
:101540005A6B22F003025A63084A1A6741F21002EA
:1015500099649850BDE83840FEF7C0BF00000640CF
:1015600000C0034002000100004004407829000050
:10157000222202210148FEF703BE00BF0000064000
:101580000C4B10B5DA6A92070FD533210A4CD3F809
:101590009400A269C0F30A10C2F301421044013062
:1015A000884200D110BD0146F1E7034B9869C0F3B2
:1015B0000140F7E70000044000000640312938B53B
:1015C00005460C461FD8FFF7DBFFF8B9114BA042C8
:1015D00015D1114B01381A8860F30E121A800F4A88
:1015E000C2F8A03002239364FFF7CAFF0028FBD0A3
:1015F00041F2EC5304210020094AD15038BD2A5C45
:10160000C2540130E3E741F20310F7E741F206105C
:10161000F4E700BF7C0300203001002000000440FC
:1016200000C00340034B10B180225A617047402232
:10163000FBE700BF000006400D4BD86E40F20113DF
:1016400098420FD040F2022398420DD0094BC01AA5
:10165000094B1B68834209D02ABFC3F59673C01A91
:10166000C01870470020F3E79620F1E7002070478C
:10167000000004404C020020780300202DE9F041D6
:10168000069E04460D461746DBB9FFF7D5FFA84274
:1016900002D2FFF7D1FF054600214FF0010E4FF0B7
:1016A0000208194A204666191368DFF864C0174C0F
:1016B000B04216D101B1136007B13D600020BDE812
:1016C000F0811EB100213046FEF728FFFFF7B4FF7E
:1016D000A842DAD2002EF9D0FEF744FF0028F5D058
:1016E000D3E71CF803100133B3F5967F00F8011B14
:1016F00004D10023C4F800800121D9E7962B08BF4C
:10170000C4F800E0F8E700BF7803002010100440A0
:101710004C02002007B50123002219460092FFF772
:10172000ADFF03B05DF804FB58B10222104B9A6282
:101730005A6B22F002025A634FF4806203F50033C1
:101740005A61A1B101210020094B99625A6B22F024
:1017500001025A63074A1A67074A10604FF4006093
:10176000064A5061996441F2100202219950704773
:1017700000000440782900007803002000000640A3
:101780000146064B042218B141F2EC515A50704701
:1017900042F2EC501A500120FFF7C6BF00C00340D0
:1017A000004870474CE30F00004870476CE30F009F
:1017B0000048704786E20F000023024A1370024A75
:1017C00013707047AE030020AF03002038B50378D4
:1017D0000546042B0C4650D008D8012B0AD0032B09
:1017E00050D1182340F6081023700DE0182BF8D0C4
:1017F000432BF5E7264B42781978D9B9012A04D052
:10180000152340F60410237038BD1A70AB781A44C3
:10181000FF2AF5D100228021E81CFEF77CFD95F817
:101820008320C0F30F239A4216D0152340F60210EE
:101830002370E9E7174B1B78934204D1062340F647
:1018400006102370E0E70133DBB29342DED01523AC
:1018500040F605102370D7E795F88430C0B2834274
:1018600004D0152340F601102370CDE76A78094BA8
:1018700000201A7006232370C6E7062340F60710DF
:101880000B70C1E7182340F603102370BCE700BFBC
:10189000AF030020AE030020014B1878704700BF53
:1018A000AE03002070B5D1E90152AA4205D290F8EA
:1018B00040302B449B1A402B10D9002012E00A68BC
:1018C00090F84040D65C90F841200133224402F069
:1018D0003F02013486548B6080F840408B689D4203
:1018E000EDD8012070BD2DE9F8431746D1E9012557
:1018F000521B90F8405004462A4493420E469DF8ED
:1019000020909DF8248057D9FFF7CCFF00285DD1A7
:10191000142341F2020084F84630BDE8F88394F8BD
:101920004120A25C7A5594F841200135013202F041
:101930003F0284F8412094F84020013A84F8402086
:1019400094F8402012B1AB42E9D11D46D6E901120C
:101950008A4201D2AB4231D8AB42D9D1D4F88820E7
:1019600029463846FEF7E4FCC4F88800B9F1000FB8
:1019700004D02A463946E06CFEF794FDB8F1000F1A
:1019800008D094F843302BB12B463A463946A06C28
:10199000FEF704FD94F8433043B1E36DA26D2B4490
:1019A0009342E36524BF002384F84330636D41F222
:1019B00003001D446565B0E70025C1E731688A5C16
:1019C0007A55B26801350132B260BFE70020A4E762
:1019D0007FB50023CDE90033082315460DEB030244
:1019E0000446FFF780FF41F203039842064626D1E2
:1019F00094F8433063B10822E06C0DEB0201FEF76E
:101A000051FD08230DEB03021146A06CFEF7C6FC46
:101A1000039A029B6A6094F843202B605AB9094AE2
:101A2000934208D0084A934205D00822E06C0DEB9F
:101A30000201FEF737FD6B682365002363653046BE
:101A400004B070BDF70A0AF7FC0404FC2DE9F84362
:101A5000044658680D4616461F46002843D08B079B
:101A600043D1FFF713FD216E00F1040C06EB0109D1
:101A7000CC451DD800F11C02914219D28C45634619
:101A800038BF0B46914594BFC3EB0909C3EB02096C
:101A9000591AA3EB0C0005EB010868304A46414691
:101AA000204400F0A0FE4A46FF21404600F0A6FE7A
:101AB000FFF7F0FC226E031D93420AD3B1180830E1
:101AC000814206D39B1AEA58C4F880204FF0FF32B7
:101AD000EA50D7E900383246206E2946C047002038
:101AE000236E1E442666BDE8F88341F20200FAE741
:101AF000F8B54FF0FF361546002204460F4603F0B6
:101B0000200380F84620A0F8402080F8432080F889
:101B1000452080F84420C0E9182280F84230C0F8FF
:101B200088601822FF21683000F068FEC4F88060E9
:101B3000C4F88460C4E91275FFF7A6FC18B117B9A0
:101B400041F20B00F8BDFFF79DFC30B1002DF7D03E
:101B5000E06CFEF79DFC0020F4E7002DF8D128464C
:101B6000F0E700002DE9F04F9BB00393CDE9072388
:101B70000023044688469946249EDFF854A409931E
:101B8000099A039B9A425AD294F84630142BF8D8FB
:101B9000DFE813F08A009F008300C90057003E0071
:101BA000350039023E0033023E0003023E0033029C
:101BB0000A03A8031500730377039F02A8030027F5
:101BC000636D0F2B6ED801251023019700950AAA8B
:101BD00007A92046FFF787FE41F20303984240F031
:101BE000A780D4F848B0FFF7E3FD80230BAACDE926
:101BF000000302212B465846FEF7AEFBE0E7012525
:101C0000D4E914329A42C0F05E8184F84650B7E7B6
:101C10000DF1280BD4E91452AA42099942D2089B2B
:101C2000AD1A94F840205B1A032D134440F2EF8163
:101C3000032B00F2138207A92046FFF733FE002092
:101C400076E00125636D072B9AD80823CDE900556E
:101C50000AAA07A92046FFF746FE41F2030398426D
:101C600066D198F8003043F0020388F800300A9BF0
:101C7000C8F80430236D083BC8F824300B9B04934C
:101C8000002B50D1052284F8462094F84520636645
:101C900042F0010284F84520D4E70025636D072B4C
:101CA00040F2DA80012311E005AA07A92046FFF7D8
:101CB0008FFE41F2030398423AD1069B059A2365B1
:101CC00000236365B74B9A422DD1022384F8463036
:101CD00056E705AA07A92046FFF77AFE41F203035B
:101CE000984225D194F84420059B22B1AE4A9342F4
:101CF00019D10E23EAE794F84220D50751D594F87C
:101D00004320002A40F0F182A84A934243D017D8DA
:101D1000A74A934207D00ED8A24A934203D002F1B9
:101D2000B642934216D1142384F8463041F20100A2
:101D30001BB0BDE8F08F9F4A9342F4D09E4AF0E773
:101D40009E4A93421DD00ED89D4A934278D09D4A18
:101D5000934218D0142384F846300DEB0300FFF7AC
:101D60008DFBD8B1E2E7984A9342DCD0974A934280
:101D7000D9D08D4A9342EDD1FFF784FB0028B8D02B
:101D8000D1E71023A2E7112384F84630236DA36521
:101D90000023E365F4E6142384F8463041F208009A
:101DA000C6E7854A934237D009D8814A934231D059
:101DB000804A93422CD0534509D10B2386E77A4AB7
:101DC00093422DD000F2A1827D4A934233D005A8E0
:101DD000FFF754FBB0B31323059884F84630C4F8DA
:101DE0008C00FFF74DFB94F84230814698067FF552
:101DF000C7AEB9F1000F3FF4C3AED9F80430002BE1
:101E00003FF4BEAE2046984700283FF4B9AE8DE7B8
:101E100004235BE7062359E7072357E70D2355E71C
:101E2000FFF730FB00287FF47EAF94F84330002B9F
:101E30003FF45FAF77E794F84330002B7FF473AF44
:101E4000122343E7142384F8463094F84330002BE0
:101E5000A4D041F204006BE70123019500930AAA84
:101E6000082307A92046FFF73EFD41F203039842ED
:101E70007FF45EAF0A9B03F07F43B3F1407F05D050
:101E8000142341F2090084F8463051E70B9BD9072F
:101E900004930ED594F8423043F0010384F84230A5
:101EA000FFF7F0FA00283FF4F9AE049BDA0504D5F9
:101EB000F4E6FFF7E9FA0028F2D0142341F20A0011
:101EC00084F8463034E7CDE900550AAA07A9204630
:101ED000FFF709FD41F2030398427FF429AF08F1AF
:101EE000080C63460AAF0DF1400E3A4603CA72452C
:101EF00018605960174603F10803F6D1106818609E
:101F000098F80030604643F0010388F80030FFF78E
:101F1000C4FA00287FF474AE142341F20C0084F854
:101F2000463005E701230CAACDE9003307A90823B1
:101F30002046FFF7D8FC41F2030398427FF4F8AE45
:101F400098F8003043F0040388F800300D9BC8F87F
:101F5000283098F801305B071CD50020236DCDF8A0
:101F600028A0C4F8843094F84530606643F002033A
:101F700084F84530F5686DB1336804220AA9A84792
:101F80000822606E3368F5680CA91044A847636E98
:101F9000103363660C2384F84630636D072BC1D978
:101FA000EEE500BFEB17A603FC0404FCF70909F7F4
:101FB000F40A0AF4F50909F5F60808F6FA0606FA2D
:101FC000F70A0AF7F90707F9FD0303FDFE0101FE11
:101FD000EB17A65E0423CDE900550AAA07A92046FF
:101FE000FFF781FC41F2030398427FF4A1AE226D1A
:101FF0000A9B042A049301D923660125636D032BF0
:10200000E8D90A2362E60023636608235EE69D4260
:102010003FF611AE9D4228BF1D460123032D88BF08
:1020200025F00305CDE900335A462B4607A9204683
:10203000FFF759FC41F2030398427FF479AE94F81C
:102040004630082B13D1B7688FB133682A465946FA
:10205000606EB847636E1D446566DBE5402D28BFA2
:102060004025D7E74FF0FF320BF805200135032D4F
:10207000F8D90A2B06D133462A4659462046FFF79F
:10208000E5FCC7E5052B18D198F801309F077FF5CF
:10209000C1ADF368002B3FF4BDAD626E042A0AD8CF
:1020A0005319062B07D90BAB9B1A1A68C4F8842066
:1020B0004FF0FF321A60F768C7E70C2B7FF4AAAD28
:1020C00098F8013058077FF5A5ADF768002FBCD10F
:1020D000A0E594F84230990607D5D4F88C00FFF7B4
:1020E000CFF9814600283FF421AE01273FE0002BC5
:1020F00058D0B9F1000F55D0D9F81030002B51D07D
:1021000020469847DDE90853ED1A94F840302B44F7
:1021100098423FF690ADD4E91452AD1A402D28BF35
:1021200040259D4228BF1D46CDE900772B460AAACF
:1021300007A92046FFF7D7FB41F2030398427FF43B
:10214000F7AD94F842309A0611D5B9F1000F3FF47B
:10215000EDADD9F808B0BBF1000F3FF4E7AD334661
:102160002A460AA92046D84700287FF4E1ADD4E9E1
:10217000142194F84230914203F02003B7D3002B8E
:102180003FF490ADB9F1000F3FF48CADD9F80C30AD
:10219000002B3FF487AD31462046984700283FF496
:1021A00081ADC5E50120ADE700230AAACDE90033E2
:1021B00007A904232046FFF796FB41F20303984248
:1021C0007FF4B6ADD4F88820554B9A4205D014233D
:1021D00041F2050084F84630AAE5FFF753F910B93B
:1021E000012388F8033098F80330002B3ED094F890
:1021F00045309B0707D0F5682DB10422336804F100
:1022000084011046A847236E83B3736873B34FF0FD
:10221000FF331AAF47F8583D04F1800904224946BC
:10222000384600F0D1FA40B1FFF734F928B1D6E9C9
:102230000035042249461044A84704F168050422E9
:102240002946384600F0C0FA80B17768FFF71EF9DA
:102250003368142204F16C010830B8477768FFF73F
:1022600015F90422336829461044B847012388F839
:1022700002300F2384F84630E1E4012384F8433030
:1022800024E594F84450002D7FF40CAD4023CDE9B3
:1022900000550AAA07A92046FFF725FB41F20303D0
:1022A00098427FF445ADE06CFEF7FEF8E76CFFF76F
:1022B00077FA8346FFF778FA5B46009012AA0AA9DC
:1022C0003846FEF77DF838B1142388F8035041F200
:1022D000060084F846302BE5012388F8033084F8A3
:1022E0004430DFE441F2070022E50E4A93423FF416
:1022F00093AD7FF65AAD0C4A93423FF491AD04D8AA
:102300000A4A93427FF463AD0DE5094A93423FF4D4
:1023100085AD084A93427FF45AAD0923D6E400BF45
:10232000E320BBDEF60808F6FC0404FCF70A0AF713
:10233000FD0303FDFE0101FE4FF098435A6CD202EB
:10234000FCD5586D00F4702070470000F0B585B0E2
:102350006C46024626460D4B03F1100725461868C9
:102360005968083303C5BB422C46F7D104AB501E55
:1023700013F8011D10F8012F914204D1B342F7D197
:10238000012005B0F0BD0020FBE700BFB829000028
:10239000C0F30C032DE9F04105460F4616460BB974
:1023A00000F0E9F905F5005424F4FF5424F01F046B
:1023B00005EB0608A04506D8324639462846BDE852
:1023C000F04100F0E6B9204600F0D5F904F50054DC
:1023D000F0E738B504460D46FFF7B8FF40B1636932
:1023E000012B08D1237C012B05D8A3692B6038BDB4
:1023F0002C600120FBE70020F9E730B59FB00446D0
:1024000002A9406BFFF7E5FF38B328221268029B50
:1024100012699A4223D8A34221D3B3F5801F1ED854
:1024200003A8FEF735F8029A2146121B03A8FEF70F
:1024300039F803A8FEF738F8029CFFF7B1F9054612
:10244000FFF7B2F92B46009004F12002214603A8C1
:10245000FDF7B6FFB0FA80F040091FB030BD002094
:10246000FBE770B42824246803462669864206D810
:10247000646913449C4202D370BCFFF789BF70BCEF
:102480007047F8B5064615460F46FFF703F884195E
:102490006319B3F5801F11D84EB9FEF7FBFF28234F
:1024A0001B685A69824202D9186900F064F92A4609
:1024B00039462046BDE8F840FFF76ABFF8BD000086
:1024C00038B50368044603F16043B3F5C03F01D952
:1024D000002038BD28231B6842681B699342F7D847
:1024E000B2F5801FF4D8456B4033AB4202D8B5F546
:1024F000801F05D9FDF7FEFE80F00100C0B2E8E7BD
:10250000FDF7F8FE20B12046BDE83840FFF775BF63
:102510002846FFF71BFFA8B12B7C012BD8D86B698D
:10252000002BD6D0022BEED1AB69C4F104011944C3
:102530004FF0FF322046FDF7FBFE034BC31A584213
:102540005841C6E70120C4E7E320BBDE70B54FF079
:10255000FF3290B006460D46FDF7EAFE1B4B98424F
:1025600031D11C22002101A800F048F9184B10AC11
:1025700044F8403D20463146FEF726F929462046DC
:10258000FEF722F92046FEF728F9FFF7D5FE0446AC
:10259000C8B940F2022000F0B3F81C22214609A875
:1025A00000F02CF90B4B10AC44F8203D314620468E
:1025B000FEF70AF929462046FEF706F92046FEF7FF
:1025C0000CF9FFF7B9FE002010B070BDE320BBDEB0
:1025D00001000543010006434FF0FF3310B58CB0F6
:1025E0001C220021044605A8009300F007F90D4BBA
:1025F000CDF804D00493012302930B4B01A904A846
:102600000393FEF7D7F804A8FEF7E7F8FFF794FE68
:1026100030B90098A0422CBF002001200CB010BDA2
:102620000020FBE7000008430400002030B5054609
:1026300091B01C22002101A800F0E0F8134B10AC6F
:1026400044F8403D29462046FEF7BEF82046FEF7F6
:10265000C4F8FFF771FE0446A8B940F2022000F06A
:102660004FF81C22214609A800F0C8F8084B10AC0E
:1026700044F8203D29462046FEF7A6F82046FEF7FE
:10268000ACF8FFF759FE002011B030BD0000024346
:1026900000000343B1F5C07F10B5044610D34FF4DA
:1026A000C072002100F0AAF8002304F58272637062
:1026B00004F1BC0104F12C00BDE81040FFF718BA8A
:1026C00040F2052010BD13B50446009101462C30A0
:1026D000FFF748FAC4F87C0118B141F207039842A9
:1026E00009D1A3784BB140F2032040F20223E278F3
:1026F000002A08BF184602B010BD40F20120FAE7D8
:102700004FF000534FF20F0218805A8070474FF07D
:1027100000534CF23C325A80704700004FF0005397
:102720004FF20F0218805A80BFF34F8F0549064BB6
:10273000CA6802F4E0621343CB60BFF34F8F00BF5F
:10274000FDE700BF00ED00E00400FA054FF0005384
:102750004FF20F015A888A4201D1188870473AB95E
:102760001B8840F20220012B18BF4FF40070704705
:102770004FF40070704710B50446FDF79FFF2046E8
:10278000FDF7B6FF0446FDF7A5FFB4FA84F0400953
:1027900010BD40EA02039B0770B505460E4614467D
:1027A0000ED17AB1FDF78AFF224631462846FDF761
:1027B000C1FF0446FDF78EFFB4FA84F0400970BDF6
:1027C0000020FCE70120FAE730B50024A24201D145
:1027D000002007E0035D01340D1915F8015CAB42E0
:1027E000F4D0581B30BD431E0A4410B5914200D1AD
:1027F00010BD11F8014B03F8014FF7E702440346FF
:10280000934200D1704703F8011BF9E7F8B500BF08
:10281000F8BC08BC9E467047F8B500BFF8BC08BCC1
:102820009E4670470400000700000D1013001A2098
:10283000263038405000000007B0CD5E0100000097
:1028400000000901182A00000040000000001000EC
:10285000F0001000E9000000ED000000C1240000BD
:1028600095260000C72600000000000013B779FA83
:10287000C925DDB7ADF3CFE0F1B614B80101000012
:1028800000000000142A00004000000000000901C0
:102890000000000000000000000000000000000038
:1028A0000000000000000000000000000000000028
:1028B0006324000000000000832400005201FFFF99
:1028C0000000000000000000000000000000000008
:1028D00000041809010967452301EFCDAB8998BAB7
:1028E000DCFE10325476C3D2E1F00000000000009C
:1028F000000000000000C1059ED8367CD50730706E
:10290000DD17F70E5939FFC00B316858151164F9FE
:102910008FA7BEFA4FA46A09E667BB67AE853C6E17
:10292000F372A54FF53A510E527F9B05688C1F83B9
:10293000D9AB5BE0CD198000000000000000000072
:102940000000000000000000000000000000000087
:102950000000000000000000000000000000000077
:102960000000000000000000000000000000000067
:102970000000000000000000500910032400064081
:102980004C020020130000000900000000010000BC
:10299000020200001300000050091003240006404A
:1029A000E202002013000000090000000002000005
:1029B00001010000D3FFFFFFB814B6F1E0CFF3AD83
:0C29C000B7DD25C9FA79B713000000004C
:1029CC000100000000FF00000000000000000000FB
:1029DC0000000000000000000000000000000000EB
:1029EC0000000000000000000000000000000000DB
:1029FC00F07F10307C0300203C00064000000000FB
:082A0C0065000000410000001C
:04000003000000A158
:00000001FF
